{
  "contractName": "NetworkLogic",
  "abi": [
    {
      "anonymous": false,
      "inputs": [
        {
          "indexed": false,
          "name": "companyAddress",
          "type": "address"
        },
        {
          "indexed": false,
          "name": "name",
          "type": "bytes32"
        },
        {
          "indexed": false,
          "name": "id",
          "type": "uint256"
        }
      ],
      "name": "companyRegistered",
      "type": "event"
    },
    {
      "anonymous": false,
      "inputs": [
        {
          "indexed": false,
          "name": "companyID",
          "type": "uint256"
        },
        {
          "indexed": false,
          "name": "name",
          "type": "bytes32"
        },
        {
          "indexed": false,
          "name": "surname",
          "type": "bytes32"
        },
        {
          "indexed": false,
          "name": "employeeID",
          "type": "uint256"
        }
      ],
      "name": "companyRegistersNewEmployee",
      "type": "event"
    },
    {
      "anonymous": false,
      "inputs": [
        {
          "indexed": true,
          "name": "sender",
          "type": "address"
        },
        {
          "indexed": true,
          "name": "recipient",
          "type": "address"
        },
        {
          "indexed": false,
          "name": "when",
          "type": "uint256"
        },
        {
          "indexed": true,
          "name": "speditionID",
          "type": "uint256"
        }
      ],
      "name": "newSpedition",
      "type": "event"
    },
    {
      "anonymous": false,
      "inputs": [
        {
          "indexed": true,
          "name": "speditionID",
          "type": "uint256"
        }
      ],
      "name": "speditionConfirmed",
      "type": "event"
    },
    {
      "constant": false,
      "inputs": [
        {
          "name": "_address",
          "type": "address"
        },
        {
          "name": "_name",
          "type": "bytes32"
        }
      ],
      "name": "registerNewCompany",
      "outputs": [],
      "payable": false,
      "stateMutability": "nonpayable",
      "type": "function"
    },
    {
      "constant": false,
      "inputs": [
        {
          "name": "_companyID",
          "type": "uint256"
        },
        {
          "name": "_name",
          "type": "bytes32"
        },
        {
          "name": "_surname",
          "type": "bytes32"
        }
      ],
      "name": "registerNewEmployee",
      "outputs": [],
      "payable": false,
      "stateMutability": "nonpayable",
      "type": "function"
    },
    {
      "constant": false,
      "inputs": [
        {
          "name": "_speditorCompanyID",
          "type": "uint256"
        },
        {
          "name": "_senderCompanyID",
          "type": "uint256"
        },
        {
          "name": "_recipientCompanyID",
          "type": "uint256"
        },
        {
          "name": "_originLatitude",
          "type": "uint256"
        },
        {
          "name": "_originLongitude",
          "type": "uint256"
        },
        {
          "name": "_destinationLatitude",
          "type": "uint256"
        },
        {
          "name": "_destinationLongitude",
          "type": "uint256"
        },
        {
          "name": "_transferedItem",
          "type": "bytes32"
        }
      ],
      "name": "registerNewSpedition",
      "outputs": [],
      "payable": false,
      "stateMutability": "nonpayable",
      "type": "function"
    },
    {
      "constant": false,
      "inputs": [
        {
          "name": "_speditionDocumentID",
          "type": "uint256"
        },
        {
          "name": "_senderCompanyID",
          "type": "uint256"
        }
      ],
      "name": "confirmSpeditionDocument",
      "outputs": [],
      "payable": false,
      "stateMutability": "nonpayable",
      "type": "function"
    },
    {
      "constant": false,
      "inputs": [
        {
          "name": "_speditionDocumentID",
          "type": "uint256"
        },
        {
          "name": "_speditorCompanyID",
          "type": "uint256"
        },
        {
          "name": "_forwardedFromEmploy",
          "type": "uint256"
        },
        {
          "name": "_forwardedToEmploy",
          "type": "uint256"
        },
        {
          "name": "_transferLatitude",
          "type": "uint256"
        },
        {
          "name": "_transferLongitude",
          "type": "uint256"
        },
        {
          "name": "_coments",
          "type": "string"
        },
        {
          "name": "_transferingVehicleID",
          "type": "bytes32"
        }
      ],
      "name": "appendStepToDocument",
      "outputs": [],
      "payable": false,
      "stateMutability": "nonpayable",
      "type": "function"
    }
  ],
  "bytecode": "0x608060405234801561001057600080fd5b50610fad806100206000396000f30060806040526004361061006c5763ffffffff7c010000000000000000000000000000000000000000000000000000000060003504166313a98754811461007157806344db6c991461008e5780635bfbc7e6146100bb578063d32d2d1b146100d9578063fb15701f1461014f575b600080fd5b34801561007d57600080fd5b5061008c600435602435610173565b005b34801561009a57600080fd5b5061008c60043560243560443560643560843560a43560c43560e435610340565b3480156100c757600080fd5b5061008c60043560243560443561068f565b3480156100e557600080fd5b50604080516020601f60c43560048181013592830184900484028501840190955281845261008c94803594602480359560443595606435956084359560a435953695919460e494919390920191819084018382808284375094975050933594506109909350505050565b34801561015b57600080fd5b5061008c600160a060020a0360043516602435610c90565b600154829081106101f4576040805160e560020a62461bcd02815260206004820152602a60248201527f444f63756d656e7420776974682074686520676976656e20696420646f65732060448201527f6e6f742065786973747300000000000000000000000000000000000000000000606482015290519081900360840190fd5b60005482908110610251576040805160e560020a62461bcd0281526020600482015260296024820152600080516020610f428339815191526044820152600080516020610f22833981519152606482015290519081900360840190fd5b60008054849133918390811061026357fe5b6000918252602090912060059091020154600160a060020a0316146102d4576040805160e560020a62461bcd02815260206004820152603f6024820152600080516020610f628339815191526044820152600080516020610f02833981519152606482015290519081900360840190fd5b60046001868154811015156102e557fe5b60009182526020909120600a90910201805460ff1916600183600581111561030957fe5b021790555060405185907f37fa76e844254d590b24ad5d11f019c6b2a3330a17acca929fc9e3d7cd4beeaf90600090a25050505050565b6000548890811061039d576040805160e560020a62461bcd0281526020600482015260296024820152600080516020610f428339815191526044820152600080516020610f22833981519152606482015290519081900360840190fd5b600054889081106103fa576040805160e560020a62461bcd0281526020600482015260296024820152600080516020610f428339815191526044820152600080516020610f22833981519152606482015290519081900360840190fd5b60005488908110610457576040805160e560020a62461bcd0281526020600482015260296024820152600080516020610f428339815191526044820152600080516020610f22833981519152606482015290519081900360840190fd5b600080548c9133918390811061046957fe5b6000918252602090912060059091020154600160a060020a0316146104da576040805160e560020a62461bcd02815260206004820152603f6024820152600080516020610f628339815191526044820152600080516020610f02833981519152606482015290519081900360840190fd5b60408051610100810182526005815260208082018e90528183018d9052606082018f9052825180840184528c81528082018c90526080830152825180840184528a81528082018a905260a08301528251600080825291810190935260019260c08301915081526020908101889052825460018181018086556000958652929094208351600a90920201805492949092839160ff199091169083600581111561057e57fe5b021790555060208281015160018301556040830151600283015560608301516003830155608083015180516004840155810151600583015560a083015180516006840155810151600783015560c083015180516105e19260088501920190610e31565b5060e091909101516009909101555060015460008054600019909201918c90811061060857fe5b600091825260208220600590910201548154600160a060020a0390911691908e90811061063157fe5b600091825260209182902060059091020154604080514281529051600160a060020a03909216927f270ce9772c080b8a8e8fc8888ba8a6ff7406608419aba048467f6c96a5394fca92918290030190a4505050505050505050505050565b610697610e7c565b60008054859081106106f5576040805160e560020a62461bcd0281526020600482015260296024820152600080516020610f428339815191526044820152600080516020610f22833981519152606482015290519081900360840190fd5b60008054879133918390811061070757fe5b6000918252602090912060059091020154600160a060020a031614610778576040805160e560020a62461bcd02815260206004820152603f6024820152600080516020610f628339815191526044820152600080516020610f02833981519152606482015290519081900360840190fd5b6040805160e081018252878152602081018790526000805491928301918a90811061079f57fe5b90600052602060002090600502016001015481526020016000898154811015156107c557fe5b6000918252602080832060046005939093020191909101548352604080518381528083018252848301528084018390526060938401839052600280546001810180835591909452855160079094027f405787fa12a823e0f2b7631cc41b3ba8828b3321ca811111fa75cd3aa3bb5ace8101948555868401517f405787fa12a823e0f2b7631cc41b3ba8828b3321ca811111fa75cd3aa3bb5acf820155918601517f405787fa12a823e0f2b7631cc41b3ba8828b3321ca811111fa75cd3aa3bb5ad0830155938501517f405787fa12a823e0f2b7631cc41b3ba8828b3321ca811111fa75cd3aa3bb5ad182015560808501518051959950939489946108ef937f405787fa12a823e0f2b7631cc41b3ba8828b3321ca811111fa75cd3aa3bb5ad2909301920190610e31565b5060a0820151816005015560c082015181600601555050925060008781548110151561091757fe5b600091825260208083206004600590930201919091018054600181018255908352918190209091018490556040805189815291820188905281810187905260608201859052517ff3f55cec7ead1ebfcf47c0833cced379da84a8ad91e9bba6fe575d3663efcaec9181900360800190a150505050505050565b60015488908110610a11576040805160e560020a62461bcd02815260206004820152602a60248201527f444f63756d656e7420776974682074686520676976656e20696420646f65732060448201527f6e6f742065786973747300000000000000000000000000000000000000000000606482015290519081900360840190fd5b60005488908110610a6e576040805160e560020a62461bcd0281526020600482015260296024820152600080516020610f428339815191526044820152600080516020610f22833981519152606482015290519081900360840190fd5b600080548a91339183908110610a8057fe5b6000918252602090912060059091020154600160a060020a031614610af1576040805160e560020a62461bcd02815260206004820152603f6024820152600080516020610f628339815191526044820152600080516020610f02833981519152606482015290519081900360840190fd5b898980600083815481101515610b0357fe5b600091825260209091206004600590920201015411610bb8576040805160e560020a62461bcd02815260206004820152604360248201527f416e20656d706c6f7920776974682074686520676976656e20494420646f657360448201527f206e6f742065786973747320696e2074686520636f6d70616e7920726567697360648201527f7472790000000000000000000000000000000000000000000000000000000000608482015290519081900360a40190fd5b8b8a80600083815481101515610bca57fe5b600091825260209091206004600590920201015411610c7f576040805160e560020a62461bcd02815260206004820152604360248201527f416e20656d706c6f7920776974682074686520676976656e20494420646f657360448201527f206e6f742065786973747320696e2074686520636f6d70616e7920726567697360648201527f7472790000000000000000000000000000000000000000000000000000000000608482015290519081900360a40190fd5b505050505050505050505050505050565b610c98610eb7565b506040805160a081018252600160a060020a0384811682526000805460208085018281528587018881528751858152808401895260608801908152885186815280850190995260808801989098526001840180865594805286517f290decd9548b62a8d60345a988386fc84ba6bc95484008f6362f93160ef3e5636005909502948501805473ffffffffffffffffffffffffffffffffffffffff19169190971617865590517f290decd9548b62a8d60345a988386fc84ba6bc95484008f6362f93160ef3e564840155517f290decd9548b62a8d60345a988386fc84ba6bc95484008f6362f93160ef3e5658301559451805194959294869493610dbf937f290decd9548b62a8d60345a988386fc84ba6bc95484008f6362f93160ef3e56601920190610e31565b5060808201518051610ddb916004840191602090910190610e31565b505060005460408051600160a060020a03881681526020810187905280820192909252517f0ec29b9708574abee9a3a8cfc0646c08be28fea9c2829a9460e35422c710636a9350908190036060019150a1505050565b828054828255906000526020600020908101928215610e6c579160200282015b82811115610e6c578251825591602001919060010190610e51565b50610e78929150610ee4565b5090565b6040805160e0810182526000808252602082018190529181018290526060808201839052608082015260a0810182905260c081019190915290565b6040805160a081018252600080825260208201819052918101919091526060808201819052608082015290565b610efe91905b80821115610e785760008155600101610eea565b905600792074686520636f6d70616e7920776974682074686520676976656e206964006f74206578697374730000000000000000000000000000000000000000000000436f6d70616e7920776974682074686520676976656e20696420646f6573206e54686973206d6574686f642063616e2063652063616c6c6564206a7573742062a165627a7a72305820d9fdbabfe77ef147482e9be6b99e8999a007b7ba06117c0290d2f3c5db4c91450029",
  "source": "pragma solidity 0.4.24;\n\nimport \"./BusinessModels.sol\";\n\n\ncontract NetworkLogic {\n    BusinessModels.Company[] companies;\n    BusinessModels.CmrDocument[] documents;\n    BusinessModels.Employee[] employees;\n    BusinessModels.TransferStep[] steps;\n\n    event companyRegistered(address companyAddress, bytes32 name, uint id);\n    event companyRegistersNewEmployee(uint companyID, bytes32 name, bytes32 surname, uint employeeID);\n\n    event newSpedition(\n        address indexed sender,\n        address indexed recipient,\n        uint when,\n        uint indexed speditionID\n    );\n\n    event speditionConfirmed(\n        uint indexed speditionID\n    );\n\n    modifier documentExists(uint _id) {\n        require(documents.length > _id, \"DOcument with the given id does not exists\");\n        _;\n    }\n\n    modifier companyExists(uint _id) {\n        require(companies.length > _id, \"Company with the given id does not exists\");\n        _;\n    }\n\n    modifier onlySpecificCompany(uint _id) {\n        require(companies[_id].companyAddress == msg.sender, \"This method can ce called just by the company with the given id\");\n        _;\n    }\n\n    modifier employeeExistsInCompany(uint _companyID, uint _employeeID) {\n        require(companies[_companyID].employees.length > _employeeID, \"An employ with the given ID does not exists in the company registry\");\n        _;\n    }\n\n    function registerNewCompany(address _address, bytes32 _name) public {\n        BusinessModels.Company memory company = BusinessModels.Company({\n            companyAddress: _address,\n            companyName: _name,\n            id: companies.length,\n            transferDocuments: new uint[](0),\n            employees: new uint[](0)\n        });\n\n        companies.push(company);\n        emit companyRegistered(_address, _name, companies.length);\n    }\n\n    function registerNewEmployee(uint _companyID, bytes32 _name, bytes32 _surname) public \n    companyExists(_companyID)\n    onlySpecificCompany(_companyID)\n    {\n        BusinessModels.Employee memory employee = BusinessModels.Employee({\n            name: _name,\n            surname: _surname,\n            employerID: companies[_companyID].id,\n            employeeID: companies[_companyID].employees.length,\n            workingDocuments: new uint[](0),\n            longitude: 0,\n            latitude: 0\n        });\n\n        uint employeeID = employees.push(employee);\n\n        companies[_companyID].employees.push(employeeID);\n        emit companyRegistersNewEmployee(_companyID, _name, _surname, employeeID);\n    }\n\n    function registerNewSpedition(\n        uint _speditorCompanyID,\n\n        uint _senderCompanyID,\n\n        uint _recipientCompanyID,\n\n        uint _originLatitude,\n        uint _originLongitude,\n        \n        uint _destinationLatitude,\n        uint _destinationLongitude,\n        bytes32  _transferedItem) public\n            companyExists(_speditorCompanyID)\n            companyExists(_senderCompanyID)\n            companyExists(_recipientCompanyID)\n            onlySpecificCompany(_speditorCompanyID)\n    {\n        documents.push(BusinessModels.CmrDocument(\n            BusinessModels.SpeditionStatus.Pending,\n            _senderCompanyID,\n            _recipientCompanyID,\n            _speditorCompanyID,\n            BusinessModels.Place(_originLatitude, _originLongitude),\n            BusinessModels.Place(_destinationLatitude, _destinationLongitude),\n            new uint[](0),\n            _transferedItem\n        ));\n\n        emit newSpedition(\n            companies[_senderCompanyID].companyAddress,\n            companies[_recipientCompanyID].companyAddress,\n            now,\n            documents.length - 1\n        );\n    }\n\n    function confirmSpeditionDocument(uint _speditionDocumentID, uint _senderCompanyID) public \n    documentExists(_speditionDocumentID)\n    companyExists(_senderCompanyID)\n    onlySpecificCompany(_senderCompanyID)\n    {\n        documents[_speditionDocumentID].status = BusinessModels.SpeditionStatus.Confirmed;\n        emit speditionConfirmed(_speditionDocumentID);\n    }\n\n    function appendStepToDocument(\n        uint _speditionDocumentID,\n        uint _speditorCompanyID,\n\n        uint _forwardedFromEmploy,\n        uint _forwardedToEmploy,\n\n        uint _transferLatitude,\n        uint _transferLongitude,\n\n        string memory _coments,\n\n        bytes32 _transferingVehicleID\n      ) public\n    documentExists(_speditionDocumentID)\n    companyExists(_speditorCompanyID)\n    onlySpecificCompany(_speditorCompanyID)\n    employeeExistsInCompany(_speditorCompanyID, _forwardedFromEmploy)\n    employeeExistsInCompany(_speditorCompanyID, _forwardedToEmploy)\n    {}\n} ",
  "sourcePath": "/Users/marcello/Projects/Hackathons/Code4Schenker/BlockchainLayer/Contracts/contracts/NetworkLogic.sol",
  "compiler": {
    "name": "solc",
    "version": "0.4.24+commit.e67f0147.Emscripten.clang"
  },
  "schemaVersion": "2.0.1",
  "updatedAt": "2018-12-08T18:36:10.836Z"
}