{
  "contractName": "NetworkLogic",
  "abi": [
    {
      "inputs": [
        {
          "name": "_authorities",
          "type": "address[]"
        }
      ],
      "payable": false,
      "stateMutability": "nonpayable",
      "type": "constructor"
    },
    {
      "anonymous": false,
      "inputs": [
        {
          "indexed": false,
          "name": "companyAddress",
          "type": "address"
        },
        {
          "indexed": false,
          "name": "name",
          "type": "bytes32"
        },
        {
          "indexed": false,
          "name": "id",
          "type": "uint256"
        }
      ],
      "name": "companyRegistered",
      "type": "event"
    },
    {
      "anonymous": false,
      "inputs": [
        {
          "indexed": false,
          "name": "companyID",
          "type": "uint256"
        },
        {
          "indexed": false,
          "name": "login",
          "type": "bytes32"
        },
        {
          "indexed": false,
          "name": "password",
          "type": "bytes32"
        },
        {
          "indexed": false,
          "name": "companyEmployeeID",
          "type": "uint256"
        },
        {
          "indexed": false,
          "name": "systemEmployeeID",
          "type": "uint256"
        }
      ],
      "name": "companyRegistersNewEmployee",
      "type": "event"
    },
    {
      "anonymous": false,
      "inputs": [
        {
          "indexed": true,
          "name": "sender",
          "type": "address"
        },
        {
          "indexed": true,
          "name": "recipient",
          "type": "address"
        },
        {
          "indexed": false,
          "name": "when",
          "type": "uint256"
        },
        {
          "indexed": true,
          "name": "speditionID",
          "type": "uint256"
        }
      ],
      "name": "newSpedition",
      "type": "event"
    },
    {
      "anonymous": false,
      "inputs": [
        {
          "indexed": true,
          "name": "speditionID",
          "type": "uint256"
        }
      ],
      "name": "speditionConfirmed",
      "type": "event"
    },
    {
      "anonymous": false,
      "inputs": [
        {
          "indexed": true,
          "name": "documentID",
          "type": "uint256"
        },
        {
          "indexed": false,
          "name": "forwardedFromEmployeeID",
          "type": "uint256"
        },
        {
          "indexed": false,
          "name": "forwardedToEmployeeID",
          "type": "uint256"
        },
        {
          "indexed": false,
          "name": "when",
          "type": "uint256"
        },
        {
          "indexed": false,
          "name": "stepLatitude",
          "type": "uint256"
        },
        {
          "indexed": false,
          "name": "stepLongitude",
          "type": "uint256"
        }
      ],
      "name": "newStepAppendedToDocument",
      "type": "event"
    },
    {
      "anonymous": false,
      "inputs": [
        {
          "indexed": true,
          "name": "documentID",
          "type": "uint256"
        },
        {
          "indexed": false,
          "name": "when",
          "type": "uint256"
        }
      ],
      "name": "speditionCompleted",
      "type": "event"
    },
    {
      "constant": false,
      "inputs": [
        {
          "name": "_address",
          "type": "address"
        },
        {
          "name": "_name",
          "type": "bytes32"
        }
      ],
      "name": "registerNewCompany",
      "outputs": [],
      "payable": false,
      "stateMutability": "nonpayable",
      "type": "function"
    },
    {
      "constant": false,
      "inputs": [
        {
          "name": "_companyID",
          "type": "uint256"
        },
        {
          "name": "_login",
          "type": "bytes32"
        },
        {
          "name": "_password",
          "type": "bytes32"
        }
      ],
      "name": "registerNewEmployee",
      "outputs": [],
      "payable": false,
      "stateMutability": "nonpayable",
      "type": "function"
    },
    {
      "constant": false,
      "inputs": [
        {
          "name": "_speditorCompanyID",
          "type": "uint256"
        },
        {
          "name": "_senderCompanyID",
          "type": "uint256"
        },
        {
          "name": "_recipientCompanyID",
          "type": "uint256"
        },
        {
          "name": "_originLatitude",
          "type": "uint256"
        },
        {
          "name": "_originLongitude",
          "type": "uint256"
        },
        {
          "name": "_destinationLatitude",
          "type": "uint256"
        },
        {
          "name": "_destinationLongitude",
          "type": "uint256"
        },
        {
          "name": "_transferedItem",
          "type": "bytes32"
        }
      ],
      "name": "registerNewSpedition",
      "outputs": [],
      "payable": false,
      "stateMutability": "nonpayable",
      "type": "function"
    },
    {
      "constant": false,
      "inputs": [
        {
          "name": "_speditionDocumentID",
          "type": "uint256"
        },
        {
          "name": "_senderCompanyID",
          "type": "uint256"
        }
      ],
      "name": "confirmSpeditionDocument",
      "outputs": [],
      "payable": false,
      "stateMutability": "nonpayable",
      "type": "function"
    },
    {
      "constant": false,
      "inputs": [
        {
          "name": "_speditionDocumentID",
          "type": "uint256"
        },
        {
          "name": "_speditorCompanyID",
          "type": "uint256"
        },
        {
          "name": "_forwardedFromEmployee",
          "type": "uint256"
        },
        {
          "name": "_forwardedToEmployee",
          "type": "uint256"
        },
        {
          "name": "_transferLatitude",
          "type": "uint256"
        },
        {
          "name": "_transferLongitude",
          "type": "uint256"
        },
        {
          "name": "_comment",
          "type": "string"
        }
      ],
      "name": "appendStepToDocument",
      "outputs": [],
      "payable": false,
      "stateMutability": "nonpayable",
      "type": "function"
    },
    {
      "constant": false,
      "inputs": [
        {
          "name": "_speditionDocumentID",
          "type": "uint256"
        },
        {
          "name": "_recieverCompanyID",
          "type": "uint256"
        },
        {
          "name": "_recievingEmployeeID",
          "type": "uint256"
        }
      ],
      "name": "markSpeditionAsCompleted",
      "outputs": [],
      "payable": false,
      "stateMutability": "nonpayable",
      "type": "function"
    },
    {
      "constant": true,
      "inputs": [
        {
          "name": "_session",
          "type": "bytes32"
        }
      ],
      "name": "getUserIDBySession",
      "outputs": [
        {
          "name": "",
          "type": "uint256"
        }
      ],
      "payable": false,
      "stateMutability": "view",
      "type": "function"
    }
  ],
  "bytecode": "0x60806040523480156200001157600080fd5b5060405162001656380380620016568339810160405280510180516200003f90600490602084019062000047565b5050620000db565b8280548282559060005260206000209081019282156200009f579160200282015b828111156200009f5782518254600160a060020a031916600160a060020a0390911617825560209092019160019091019062000068565b50620000ad929150620000b1565b5090565b620000d891905b80821115620000ad578054600160a060020a0319168155600101620000b8565b90565b61156b80620000eb6000396000f3006080604052600436106100815763ffffffff7c010000000000000000000000000000000000000000000000000000000060003504166277eefa811461008657806313a98754146100a657806344db6c99146100c15780635bfbc7e6146100ee578063c5c245cb1461010c578063f89af55914610180578063fb15701f146101aa575b600080fd5b34801561009257600080fd5b506100a46004356024356044356101ce565b005b3480156100b257600080fd5b506100a46004356024356103ac565b3480156100cd57600080fd5b506100a460043560243560443560643560843560a43560c43560e435610579565b3480156100fa57600080fd5b506100a46004356024356044356108c8565b34801561011857600080fd5b50604080516020601f60c4356004818101359283018490048402850184019095528184526100a494803594602480359560443595606435956084359560a435953695919460e4949193909201918190840183828082843750949750610cb99650505050505050565b34801561018c57600080fd5b506101986004356110cf565b60408051918252519081900360200190f35b3480156101b657600080fd5b506100a4600160a060020a0360043516602435611144565b6001548390811061024f576040805160e560020a62461bcd02815260206004820152602a60248201527f444f63756d656e7420776974682074686520676976656e20696420646f65732060448201527f6e6f742065786973747300000000000000000000000000000000000000000000606482015290519081900360840190fd5b600054839081106102ac576040805160e560020a62461bcd028152602060048201526029602482015260008051602061150083398151915260448201526000805160206114e0833981519152606482015290519081900360840190fd5b83836102b882826112e8565b1515610334576040805160e560020a62461bcd02815260206004820152602f60248201527f5468697320656d706c6f79656520646f65736e277420776f726b20696e20746860448201527f6520676976656e20636f6d70616e790000000000000000000000000000000000606482015290519081900360840190fd5b6001808881548110151561034457fe5b60009182526020909120600a90910201805460ff1916600183600481111561036857fe5b021790555060408051428152905188917fb464f5faa77df45bb0e520baaa6b6ecb6cc6b7aa94b443b56d518b9fcbcef8bd919081900360200190a250505050505050565b6001548290811061042d576040805160e560020a62461bcd02815260206004820152602a60248201527f444f63756d656e7420776974682074686520676976656e20696420646f65732060448201527f6e6f742065786973747300000000000000000000000000000000000000000000606482015290519081900360840190fd5b6000548290811061048a576040805160e560020a62461bcd028152602060048201526029602482015260008051602061150083398151915260448201526000805160206114e0833981519152606482015290519081900360840190fd5b60008054849133918390811061049c57fe5b6000918252602090912060059091020154600160a060020a03161461050d576040805160e560020a62461bcd02815260206004820152603f602482015260008051602061152083398151915260448201526000805160206114c0833981519152606482015290519081900360840190fd5b600060018681548110151561051e57fe5b60009182526020909120600a90910201805460ff1916600183600481111561054257fe5b021790555060405185907f37fa76e844254d590b24ad5d11f019c6b2a3330a17acca929fc9e3d7cd4beeaf90600090a25050505050565b600054889081106105d6576040805160e560020a62461bcd028152602060048201526029602482015260008051602061150083398151915260448201526000805160206114e0833981519152606482015290519081900360840190fd5b60005488908110610633576040805160e560020a62461bcd028152602060048201526029602482015260008051602061150083398151915260448201526000805160206114e0833981519152606482015290519081900360840190fd5b60005488908110610690576040805160e560020a62461bcd028152602060048201526029602482015260008051602061150083398151915260448201526000805160206114e0833981519152606482015290519081900360840190fd5b600080548c913391839081106106a257fe5b6000918252602090912060059091020154600160a060020a031614610713576040805160e560020a62461bcd02815260206004820152603f602482015260008051602061152083398151915260448201526000805160206114c0833981519152606482015290519081900360840190fd5b60408051610100810182526004815260208082018e90528183018d9052606082018f9052825180840184528c81528082018c90526080830152825180840184528a81528082018a905260a08301528251600080825291810190935260019260c08301915081526020908101889052825460018181018086556000958652929094208351600a90920201805492949092839160ff19909116908360048111156107b757fe5b021790555060208281015160018301556040830151600283015560608301516003830155608083015180516004840155810151600583015560a083015180516006840155810151600783015560c0830151805161081a9260088501920190611372565b5060e091909101516009909101555060015460008054600019909201918c90811061084157fe5b600091825260208220600590910201548154600160a060020a0390911691908e90811061086a57fe5b600091825260209182902060059091020154604080514281529051600160a060020a03909216927f270ce9772c080b8a8e8fc8888ba8a6ff7406608419aba048467f6c96a5394fca92918290030190a4505050505050505050505050565b6108d06113bd565b600080548590811061092e576040805160e560020a62461bcd028152602060048201526029602482015260008051602061150083398151915260448201526000805160206114e0833981519152606482015290519081900360840190fd5b60008054879133918390811061094057fe5b6000918252602090912060059091020154600160a060020a0316146109b1576040805160e560020a62461bcd02815260206004820152603f602482015260008051602061152083398151915260448201526000805160206114c0833981519152606482015290519081900360840190fd5b6040805161012081018252878152602080820188905282518082018a90528084018990528351808203850181526060909101808552815193948501939192909182918401908083835b60208310610a195780518252601f1990920191602091820191016109fa565b51815160209384036101000a60001901801990921691161790526040519190930181900390208552506000805494909101939092508b91508110610a5957fe5b9060005260206000209060050201600101548152602001600089815481101515610a7f57fe5b6000918252602080832060046005939093020191909101548352600280546000198101858401526040805185815280850182528187015260608087018690526080968701869052600180840180865594909652875160099093027f405787fa12a823e0f2b7631cc41b3ba8828b3321ca811111fa75cd3aa3bb5ace8101938455888601517f405787fa12a823e0f2b7631cc41b3ba8828b3321ca811111fa75cd3aa3bb5acf820155918801517f405787fa12a823e0f2b7631cc41b3ba8828b3321ca811111fa75cd3aa3bb5ad08301558701517f405787fa12a823e0f2b7631cc41b3ba8828b3321ca811111fa75cd3aa3bb5ad1820155948601517f405787fa12a823e0f2b7631cc41b3ba8828b3321ca811111fa75cd3aa3bb5ad286015560a08601517f405787fa12a823e0f2b7631cc41b3ba8828b3321ca811111fa75cd3aa3bb5ad386015560c08601518051969a50939591948a949193610c09937f405787fa12a823e0f2b7631cc41b3ba8828b3321ca811111fa75cd3aa3bb5ad4909201920190611372565b5060e0820151816007015561010082015181600801555050039250600087815481101515610c3357fe5b60009182526020808320600460059093020191909101805460018101825590835291819020909101849055608080860151604080518b81529384018a90528381018990526060840191909152908201859052517f326a1d9d7948b0c79e9d65fba6e28538927bc949e1f1fed22008bad4db86bb209181900360a00190a150505050505050565b60015460009088908110610d3d576040805160e560020a62461bcd02815260206004820152602a60248201527f444f63756d656e7420776974682074686520676976656e20696420646f65732060448201527f6e6f742065786973747300000000000000000000000000000000000000000000606482015290519081900360840190fd5b60005488908110610d9a576040805160e560020a62461bcd028152602060048201526029602482015260008051602061150083398151915260448201526000805160206114e0833981519152606482015290519081900360840190fd5b600080548a91339183908110610dac57fe5b6000918252602090912060059091020154600160a060020a031614610e1d576040805160e560020a62461bcd02815260206004820152603f602482015260008051602061152083398151915260448201526000805160206114c0833981519152606482015290519081900360840190fd5b8989610e2982826112e8565b1515610ea5576040805160e560020a62461bcd02815260206004820152602f60248201527f5468697320656d706c6f79656520646f65736e277420776f726b20696e20746860448201527f6520676976656e20636f6d70616e790000000000000000000000000000000000606482015290519081900360840190fd5b8b8a610eb182826112e8565b1515610f2d576040805160e560020a62461bcd02815260206004820152602f60248201527f5468697320656d706c6f79656520646f65736e277420776f726b20696e20746860448201527f6520676976656e20636f6d70616e790000000000000000000000000000000000606482015290519081900360840190fd5b604080516060810182528e815260208082018f81526005805494840194855260038054600181810180845560008481529751929093027fc2575a0e9e593c00f959f8c92f12db2869c3395a3b0502d05e2516446f71f85b81019290925593517fc2575a0e9e593c00f959f8c92f12db2869c3395a3b0502d05e2516446f71f85c82015595517fc2575a0e9e593c00f959f8c92f12db2869c3395a3b0502d05e2516446f71f85d90960195909555805491820180825593528c51939b50919261101a927f036b6384b5eca791c62761152d0c79bb0604c104a5fb6f4eb0703f3154bb3db001918d0190611408565b505060018f81548110151561102b57fe5b90600052602060002090600a02016008018890806001815401808255809150509060018203906000526020600020016000909192909190915055508e7fb0137cf93183198b06809ac546ae1ac87a95ab2a0b8652b9aed17ccad683763d8e8e428f8f604051808681526020018581526020018481526020018381526020018281526020019550505050505060405180910390a2505050505050505050505050505050565b6000805b6002548110156111395760028054849190839081106110ee57fe5b90600052602060002090600902016002015460001916141561113157600280548290811061111857fe5b906000526020600020906009020160050154915061113e565b6001016110d3565b60fd91505b50919050565b61114c611475565b506040805160a081018252600160a060020a0384811682526000805460208085018281528587018881528751858152808401895260608801908152885186815280850190995260808801989098526001840180865594805286517f290decd9548b62a8d60345a988386fc84ba6bc95484008f6362f93160ef3e5636005909502948501805473ffffffffffffffffffffffffffffffffffffffff19169190971617865590517f290decd9548b62a8d60345a988386fc84ba6bc95484008f6362f93160ef3e564840155517f290decd9548b62a8d60345a988386fc84ba6bc95484008f6362f93160ef3e5658301559451805194959294869493611273937f290decd9548b62a8d60345a988386fc84ba6bc95484008f6362f93160ef3e56601920190611372565b506080820151805161128f916004840191602090910190611372565b505060005460408051600160a060020a03881681526020810187905260001990920182820152517f0ec29b9708574abee9a3a8cfc0646c08be28fea9c2829a9460e35422c710636a9350908190036060019150a1505050565b6000805b60008054859081106112fa57fe5b906000526020600020906005020160040180549050811015611366578260008581548110151561132657fe5b90600052602060002090600502016004018281548110151561134457fe5b9060005260206000200154141561135e576001915061136b565b6001016112ec565b600091505b5092915050565b8280548282559060005260206000209081019282156113ad579160200282015b828111156113ad578251825591602001919060010190611392565b506113b99291506114a2565b5090565b604080516101208101825260008082526020820181905291810182905260608082018390526080820183905260a0820183905260c082015260e0810182905261010081019190915290565b828054600181600116156101000203166002900490600052602060002090601f016020900481019282601f1061144957805160ff19168380011785556113ad565b828001600101855582156113ad57918201828111156113ad578251825591602001919060010190611392565b6040805160a081018252600080825260208201819052918101919091526060808201819052608082015290565b6114bc91905b808211156113b957600081556001016114a8565b905600792074686520636f6d70616e7920776974682074686520676976656e206964006f74206578697374730000000000000000000000000000000000000000000000436f6d70616e7920776974682074686520676976656e20696420646f6573206e54686973206d6574686f642063616e2063652063616c6c6564206a7573742062a165627a7a723058204e7ae2a27819af14328662f83e26f40f9bd60275368080a64da377a09c332cc20029",
  "source": "pragma solidity 0.4.24;\n\nimport \"./BusinessModels.sol\";\n\n\ncontract NetworkLogic {\n    BusinessModels.Company[] companies;\n    BusinessModels.CmrDocument[] documents;\n    BusinessModels.Employee[] employees;\n    BusinessModels.TransferStep[] steps;\n\n    address[] authorities;\n    string[] comments;\n\n    event companyRegistered(address companyAddress, bytes32 name, uint id);\n    event companyRegistersNewEmployee(\n        uint companyID,\n        bytes32 login,\n        bytes32 password,\n        uint companyEmployeeID,\n        uint systemEmployeeID\n    );\n\n    event newSpedition(\n        address indexed sender,\n        address indexed recipient,\n        uint when,\n        uint indexed speditionID\n    );\n\n    event speditionConfirmed(\n        uint indexed speditionID\n    );\n\n    event newStepAppendedToDocument(\n        uint indexed documentID,\n        uint forwardedFromEmployeeID,\n        uint forwardedToEmployeeID,\n        uint when,\n        uint stepLatitude,\n        uint stepLongitude\n    );\n\n    event speditionCompleted(\n        uint indexed documentID,\n        uint when\n    );\n\n    modifier documentExists(uint _id) {\n        require(documents.length > _id, \"DOcument with the given id does not exists\");\n        _;\n    }\n\n    modifier companyExists(uint _id) {\n        require(companies.length > _id, \"Company with the given id does not exists\");\n        _;\n    }\n\n    modifier onlySpecificCompany(uint _id) {\n        require(companies[_id].companyAddress == msg.sender, \"This method can ce called just by the company with the given id\");\n        _;\n    }\n\n    modifier employeeWorksInCompany(uint _companyID, uint _systemEmployeeID) {\n        require(isEmployerWorkingInCompany(_companyID, _systemEmployeeID), \"This employee doesn't work in the given company\");\n        _;\n    }\n\n    constructor(address[] memory _authorities) public {\n        authorities = _authorities;\n    }\n\n    function isEmployerWorkingInCompany(uint _companyID, uint _systemEmployeeID) private view returns(bool) {\n        for(uint i = 0; i < companies[_companyID].employees.length; i++) {\n            if(companies[_companyID].employees[i] == _systemEmployeeID) {\n                return true;\n            } \n        }\n        return false;\n    }\n\n    function registerNewCompany(address _address, bytes32 _name) public {\n        BusinessModels.Company memory company = BusinessModels.Company({\n            companyAddress: _address,\n            companyName: _name,\n            id: companies.length,\n            transferDocuments: new uint[](0),\n            employees: new uint[](0)\n        });\n\n        companies.push(company);\n        emit companyRegistered(_address, _name, companies.length - 1);\n    }\n\n    function registerNewEmployee(uint _companyID, bytes32 _login, bytes32 _password) public \n    companyExists(_companyID)\n    onlySpecificCompany(_companyID)\n    {\n        BusinessModels.Employee memory employee = BusinessModels.Employee({\n            login: _login,\n            password: _password,\n            session: keccak256(abi.encode(_login, _password)),\n            employerID: companies[_companyID].id,\n            companyEmployeeID: companies[_companyID].employees.length,\n            systemEmployeeID: employees.length - 1,\n            workingDocuments: new uint[](0),\n            longitude: 0,\n            latitude: 0\n        });\n\n        uint employeeID = employees.push(employee) - 1;\n\n        companies[_companyID].employees.push(employeeID);\n        emit companyRegistersNewEmployee(_companyID, _login, _password, employee.companyEmployeeID, employeeID);\n    }\n\n    function registerNewSpedition(\n        uint _speditorCompanyID,\n\n        uint _senderCompanyID,\n\n        uint _recipientCompanyID,\n\n        uint _originLatitude,\n        uint _originLongitude,\n        \n        uint _destinationLatitude,\n        uint _destinationLongitude,\n        bytes32  _transferedItem) public\n            companyExists(_speditorCompanyID)\n            companyExists(_senderCompanyID)\n            companyExists(_recipientCompanyID)\n            onlySpecificCompany(_speditorCompanyID)\n    {\n        documents.push(BusinessModels.CmrDocument(\n            BusinessModels.SpeditionStatus.Pending,\n            _senderCompanyID,\n            _recipientCompanyID,\n            _speditorCompanyID,\n            BusinessModels.Place(_originLatitude, _originLongitude),\n            BusinessModels.Place(_destinationLatitude, _destinationLongitude),\n            new uint[](0),\n            _transferedItem\n        ));\n\n        emit newSpedition(\n            companies[_senderCompanyID].companyAddress,\n            companies[_recipientCompanyID].companyAddress,\n            now,\n            documents.length - 1\n        );\n    }\n\n    function confirmSpeditionDocument(uint _speditionDocumentID, uint _senderCompanyID) public \n    documentExists(_speditionDocumentID)\n    companyExists(_senderCompanyID)\n    onlySpecificCompany(_senderCompanyID)\n    {\n        documents[_speditionDocumentID].status = BusinessModels.SpeditionStatus.Active;\n        emit speditionConfirmed(_speditionDocumentID);\n    }\n\n    function appendStepToDocument(\n        uint _speditionDocumentID,\n        uint _speditorCompanyID,\n\n        uint _forwardedFromEmployee,\n        uint _forwardedToEmployee,\n\n        uint _transferLatitude,\n        uint _transferLongitude,\n\n        string memory _comment\n      ) public\n    documentExists(_speditionDocumentID)\n    companyExists(_speditorCompanyID)\n    onlySpecificCompany(_speditorCompanyID)\n    employeeWorksInCompany(_speditorCompanyID, _forwardedFromEmployee)\n    employeeWorksInCompany(_speditorCompanyID, _forwardedToEmployee)\n    {   \n        uint _stepID = steps.push(BusinessModels.TransferStep(\n            _forwardedFromEmployee,\n            _forwardedToEmployee,\n            comments.length\n        ));\n        comments.push(_comment);\n        documents[_speditionDocumentID].stepIDs.push(_stepID);\n\n        emit newStepAppendedToDocument(\n            _speditionDocumentID,\n            _forwardedFromEmployee,\n            _forwardedToEmployee,\n            now,\n            _transferLatitude,\n            _transferLongitude\n        );\n    }\n\n    function markSpeditionAsCompleted(uint _speditionDocumentID, uint _recieverCompanyID, uint _recievingEmployeeID) public\n    documentExists(_speditionDocumentID) \n    companyExists(_recieverCompanyID)\n    employeeWorksInCompany(_recieverCompanyID, _recievingEmployeeID)\n    {\n        documents[_speditionDocumentID].status = BusinessModels.SpeditionStatus.Completed;\n        emit speditionCompleted(_speditionDocumentID, now);\n    }\n\n    function getUserIDBySession(bytes32 _session) public view returns(uint) {\n        for(uint i = 0; i < employees.length; i++) {\n            if(employees[i].session == _session) {\n                return employees[i].systemEmployeeID;\n            }\n        }\n        return 2^256-1;\n    }\n} ",
  "sourcePath": "/Users/marcello/Projects/Hackathons/Code4Schenker/BlockchainLayer/Contracts/contracts/NetworkLogic.sol",
  "compiler": {
    "name": "solc",
    "version": "0.4.24+commit.e67f0147.Emscripten.clang"
  },
  "schemaVersion": "2.0.1",
  "updatedAt": "2018-12-09T01:06:37.831Z"
}